{
  "contracts/ethregistrar/DummyOracle.sol": {
    "DummyOracle": {
      "abi": [
        {
          "inputs": [
            {
              "internalType": "int256",
              "name": "_value",
              "type": "int256"
            }
          ],
          "stateMutability": "nonpayable",
          "type": "constructor"
        },
        {
          "inputs": [],
          "name": "latestAnswer",
          "outputs": [
            {
              "internalType": "int256",
              "name": "",
              "type": "int256"
            }
          ],
          "stateMutability": "view",
          "type": "function"
        },
        {
          "inputs": [
            {
              "internalType": "int256",
              "name": "_value",
              "type": "int256"
            }
          ],
          "name": "set",
          "outputs": [],
          "stateMutability": "nonpayable",
          "type": "function"
        }
      ],
      "devdoc": {
        "kind": "dev",
        "methods": {},
        "version": 1
      },
      "evm": {
        "bytecode": {
          "linkReferences": {},
          "object": "608060405234801561001057600080fd5b5060405161010f38038061010f83398101604081905261002f9161003e565b61003881600055565b50610056565b60006020828403121561004f578081fd5b5051919050565b60ab806100646000396000f3fe6080604052348015600f57600080fd5b506004361060325760003560e01c806350d25bcd146037578063e5c19b2d14604c575b600080fd5b60005460405190815260200160405180910390f35b605c6057366004605e565b600055565b005b600060208284031215606e578081fd5b503591905056fea26469706673582212203983bba4eaaeed04c5f88d6961c5733529d550197e8a836a8fa11d201189f9b664736f6c63430008040033",
          "opcodes": "PUSH1 0x80 PUSH1 0x40 MSTORE CALLVALUE DUP1 ISZERO PUSH2 0x10 JUMPI PUSH1 0x0 DUP1 REVERT JUMPDEST POP PUSH1 0x40 MLOAD PUSH2 0x10F CODESIZE SUB DUP1 PUSH2 0x10F DUP4 CODECOPY DUP2 ADD PUSH1 0x40 DUP2 SWAP1 MSTORE PUSH2 0x2F SWAP2 PUSH2 0x3E JUMP JUMPDEST PUSH2 0x38 DUP2 PUSH1 0x0 SSTORE JUMP JUMPDEST POP PUSH2 0x56 JUMP JUMPDEST PUSH1 0x0 PUSH1 0x20 DUP3 DUP5 SUB SLT ISZERO PUSH2 0x4F JUMPI DUP1 DUP2 REVERT JUMPDEST POP MLOAD SWAP2 SWAP1 POP JUMP JUMPDEST PUSH1 0xAB DUP1 PUSH2 0x64 PUSH1 0x0 CODECOPY PUSH1 0x0 RETURN INVALID PUSH1 0x80 PUSH1 0x40 MSTORE CALLVALUE DUP1 ISZERO PUSH1 0xF JUMPI PUSH1 0x0 DUP1 REVERT JUMPDEST POP PUSH1 0x4 CALLDATASIZE LT PUSH1 0x32 JUMPI PUSH1 0x0 CALLDATALOAD PUSH1 0xE0 SHR DUP1 PUSH4 0x50D25BCD EQ PUSH1 0x37 JUMPI DUP1 PUSH4 0xE5C19B2D EQ PUSH1 0x4C JUMPI JUMPDEST PUSH1 0x0 DUP1 REVERT JUMPDEST PUSH1 0x0 SLOAD PUSH1 0x40 MLOAD SWAP1 DUP2 MSTORE PUSH1 0x20 ADD PUSH1 0x40 MLOAD DUP1 SWAP2 SUB SWAP1 RETURN JUMPDEST PUSH1 0x5C PUSH1 0x57 CALLDATASIZE PUSH1 0x4 PUSH1 0x5E JUMP JUMPDEST PUSH1 0x0 SSTORE JUMP JUMPDEST STOP JUMPDEST PUSH1 0x0 PUSH1 0x20 DUP3 DUP5 SUB SLT ISZERO PUSH1 0x6E JUMPI DUP1 DUP2 REVERT JUMPDEST POP CALLDATALOAD SWAP2 SWAP1 POP JUMP INVALID LOG2 PUSH5 0x6970667358 0x22 SLT KECCAK256 CODECOPY DUP4 0xBB LOG4 0xEA 0xAE 0xED DIV 0xC5 0xF8 DUP14 PUSH10 0x61C5733529D550197E8A DUP4 PUSH11 0x8FA11D201189F9B664736F PUSH13 0x63430008040033000000000000 "
        },
        "gasEstimates": {
          "creation": {
            "codeDepositCost": "34200",
            "executionCost": "infinite",
            "totalCost": "infinite"
          },
          "external": {
            "latestAnswer()": "946",
            "set(int256)": "20212"
          }
        },
        "methodIdentifiers": {
          "latestAnswer()": "50d25bcd",
          "set(int256)": "e5c19b2d"
        }
      },
      "storageLayout": {
        "storage": [
          {
            "astId": 3,
            "contract": "contracts/ethregistrar/DummyOracle.sol:DummyOracle",
            "label": "value",
            "offset": 0,
            "slot": "0",
            "type": "t_int256"
          }
        ],
        "types": {
          "t_int256": {
            "encoding": "inplace",
            "label": "int256",
            "numberOfBytes": "32"
          }
        }
      },
      "userdoc": {
        "kind": "user",
        "methods": {},
        "version": 1
      }
    }
  }
}