{
  "contracts/dnsregistrar/mocks/DummyDnsRegistrarDNSSEC.sol": {
    "DummyDNSSEC": {
      "abi": [
        {
          "inputs": [
            {
              "internalType": "uint16",
              "name": "dnstype",
              "type": "uint16"
            },
            {
              "internalType": "bytes",
              "name": "name",
              "type": "bytes"
            }
          ],
          "name": "rrdata",
          "outputs": [
            {
              "internalType": "uint32",
              "name": "",
              "type": "uint32"
            },
            {
              "internalType": "uint64",
              "name": "",
              "type": "uint64"
            },
            {
              "internalType": "bytes20",
              "name": "",
              "type": "bytes20"
            }
          ],
          "stateMutability": "view",
          "type": "function"
        },
        {
          "inputs": [
            {
              "internalType": "uint16",
              "name": "_expectedType",
              "type": "uint16"
            },
            {
              "internalType": "bytes",
              "name": "_expectedName",
              "type": "bytes"
            },
            {
              "internalType": "uint32",
              "name": "_inception",
              "type": "uint32"
            },
            {
              "internalType": "uint64",
              "name": "_inserted",
              "type": "uint64"
            },
            {
              "internalType": "bytes",
              "name": "_proof",
              "type": "bytes"
            }
          ],
          "name": "setData",
          "outputs": [],
          "stateMutability": "nonpayable",
          "type": "function"
        }
      ],
      "devdoc": {
        "kind": "dev",
        "methods": {},
        "version": 1
      },
      "evm": {
        "bytecode": {
          "linkReferences": {},
          "object": "608060405234801561001057600080fd5b506105d1806100206000396000f3fe608060405234801561001057600080fd5b50600436106100365760003560e01c8063087991bc1461003b5780638581a99c1461009f575b600080fd5b61004e610049366004610353565b6100b4565b6040805163ffffffff909416845267ffffffffffffffff90921660208401527fffffffffffffffffffffffffffffffffffffffff000000000000000000000000169082015260600160405180910390f35b6100b26100ad36600461039f565b610132565b005b600080548190819061ffff8681169116146100ce57600080fd5b60016040516100dd9190610446565b60405180910390208480519060200120146100f757600080fd5b505060025463ffffffff8116915067ffffffffffffffff640100000000820416906c01000000000000000000000000900460601b9250925092565b600080547fffffffffffffffffffffffffffffffffffffffffffffffffffffffffffff00001661ffff871617905583516101739060019060208701906101fe565b506002805467ffffffffffffffff8416640100000000027fffffffffffffffffffffffffffffffffffffffff00000000000000000000000090911663ffffffff8616171790558051156101f757805160208201206002805460609290921c6c01000000000000000000000000026bffffffffffffffffffffffff9092169190911790555b5050505050565b82805461020a90610518565b90600052602060002090601f01602090048101928261022c5760008555610272565b82601f1061024557805160ff1916838001178555610272565b82800160010185558215610272579182015b82811115610272578251825591602001919060010190610257565b5061027e929150610282565b5090565b5b8082111561027e5760008155600101610283565b600082601f8301126102a7578081fd5b813567ffffffffffffffff808211156102c2576102c261056c565b604051601f83017fffffffffffffffffffffffffffffffffffffffffffffffffffffffffffffffe0908116603f011681019082821181831017156103085761030861056c565b81604052838152866020858801011115610320578485fd5b8360208701602083013792830160200193909352509392505050565b803561ffff8116811461034e57600080fd5b919050565b60008060408385031215610365578182fd5b61036e8361033c565b9150602083013567ffffffffffffffff811115610389578182fd5b61039585828601610297565b9150509250929050565b600080600080600060a086880312156103b6578081fd5b6103bf8661033c565b9450602086013567ffffffffffffffff808211156103db578283fd5b6103e789838a01610297565b95506040880135915063ffffffff82168214610401578283fd5b9093506060870135908082168214610417578283fd5b9092506080870135908082111561042c578283fd5b5061043988828901610297565b9150509295509295909350565b600080835482600182811c91508083168061046257607f831692505b602080841082141561049b577f4e487b710000000000000000000000000000000000000000000000000000000087526022600452602487fd5b8180156104af57600181146104de5761050a565b7fffffffffffffffffffffffffffffffffffffffffffffffffffffffffffffff0086168952848901965061050a565b60008a815260209020885b868110156105025781548b8201529085019083016104e9565b505084890196505b509498975050505050505050565b600181811c9082168061052c57607f821691505b60208210811415610566577f4e487b7100000000000000000000000000000000000000000000000000000000600052602260045260246000fd5b50919050565b7f4e487b7100000000000000000000000000000000000000000000000000000000600052604160045260246000fdfea26469706673582212205f5eb56be2430cb1d81e8fe0fe29d628eb0722a54d732e49bacb195234631bb164736f6c63430008040033",
          "opcodes": "PUSH1 0x80 PUSH1 0x40 MSTORE CALLVALUE DUP1 ISZERO PUSH2 0x10 JUMPI PUSH1 0x0 DUP1 REVERT JUMPDEST POP PUSH2 0x5D1 DUP1 PUSH2 0x20 PUSH1 0x0 CODECOPY PUSH1 0x0 RETURN INVALID PUSH1 0x80 PUSH1 0x40 MSTORE CALLVALUE DUP1 ISZERO PUSH2 0x10 JUMPI PUSH1 0x0 DUP1 REVERT JUMPDEST POP PUSH1 0x4 CALLDATASIZE LT PUSH2 0x36 JUMPI PUSH1 0x0 CALLDATALOAD PUSH1 0xE0 SHR DUP1 PUSH4 0x87991BC EQ PUSH2 0x3B JUMPI DUP1 PUSH4 0x8581A99C EQ PUSH2 0x9F JUMPI JUMPDEST PUSH1 0x0 DUP1 REVERT JUMPDEST PUSH2 0x4E PUSH2 0x49 CALLDATASIZE PUSH1 0x4 PUSH2 0x353 JUMP JUMPDEST PUSH2 0xB4 JUMP JUMPDEST PUSH1 0x40 DUP1 MLOAD PUSH4 0xFFFFFFFF SWAP1 SWAP5 AND DUP5 MSTORE PUSH8 0xFFFFFFFFFFFFFFFF SWAP1 SWAP3 AND PUSH1 0x20 DUP5 ADD MSTORE PUSH32 0xFFFFFFFFFFFFFFFFFFFFFFFFFFFFFFFFFFFFFFFF000000000000000000000000 AND SWAP1 DUP3 ADD MSTORE PUSH1 0x60 ADD PUSH1 0x40 MLOAD DUP1 SWAP2 SUB SWAP1 RETURN JUMPDEST PUSH2 0xB2 PUSH2 0xAD CALLDATASIZE PUSH1 0x4 PUSH2 0x39F JUMP JUMPDEST PUSH2 0x132 JUMP JUMPDEST STOP JUMPDEST PUSH1 0x0 DUP1 SLOAD DUP2 SWAP1 DUP2 SWAP1 PUSH2 0xFFFF DUP7 DUP2 AND SWAP2 AND EQ PUSH2 0xCE JUMPI PUSH1 0x0 DUP1 REVERT JUMPDEST PUSH1 0x1 PUSH1 0x40 MLOAD PUSH2 0xDD SWAP2 SWAP1 PUSH2 0x446 JUMP JUMPDEST PUSH1 0x40 MLOAD DUP1 SWAP2 SUB SWAP1 KECCAK256 DUP5 DUP1 MLOAD SWAP1 PUSH1 0x20 ADD KECCAK256 EQ PUSH2 0xF7 JUMPI PUSH1 0x0 DUP1 REVERT JUMPDEST POP POP PUSH1 0x2 SLOAD PUSH4 0xFFFFFFFF DUP2 AND SWAP2 POP PUSH8 0xFFFFFFFFFFFFFFFF PUSH5 0x100000000 DUP3 DIV AND SWAP1 PUSH13 0x1000000000000000000000000 SWAP1 DIV PUSH1 0x60 SHL SWAP3 POP SWAP3 POP SWAP3 JUMP JUMPDEST PUSH1 0x0 DUP1 SLOAD PUSH32 0xFFFFFFFFFFFFFFFFFFFFFFFFFFFFFFFFFFFFFFFFFFFFFFFFFFFFFFFFFFFF0000 AND PUSH2 0xFFFF DUP8 AND OR SWAP1 SSTORE DUP4 MLOAD PUSH2 0x173 SWAP1 PUSH1 0x1 SWAP1 PUSH1 0x20 DUP8 ADD SWAP1 PUSH2 0x1FE JUMP JUMPDEST POP PUSH1 0x2 DUP1 SLOAD PUSH8 0xFFFFFFFFFFFFFFFF DUP5 AND PUSH5 0x100000000 MUL PUSH32 0xFFFFFFFFFFFFFFFFFFFFFFFFFFFFFFFFFFFFFFFF000000000000000000000000 SWAP1 SWAP2 AND PUSH4 0xFFFFFFFF DUP7 AND OR OR SWAP1 SSTORE DUP1 MLOAD ISZERO PUSH2 0x1F7 JUMPI DUP1 MLOAD PUSH1 0x20 DUP3 ADD KECCAK256 PUSH1 0x2 DUP1 SLOAD PUSH1 0x60 SWAP3 SWAP1 SWAP3 SHR PUSH13 0x1000000000000000000000000 MUL PUSH12 0xFFFFFFFFFFFFFFFFFFFFFFFF SWAP1 SWAP3 AND SWAP2 SWAP1 SWAP2 OR SWAP1 SSTORE JUMPDEST POP POP POP POP POP JUMP JUMPDEST DUP3 DUP1 SLOAD PUSH2 0x20A SWAP1 PUSH2 0x518 JUMP JUMPDEST SWAP1 PUSH1 0x0 MSTORE PUSH1 0x20 PUSH1 0x0 KECCAK256 SWAP1 PUSH1 0x1F ADD PUSH1 0x20 SWAP1 DIV DUP2 ADD SWAP3 DUP3 PUSH2 0x22C JUMPI PUSH1 0x0 DUP6 SSTORE PUSH2 0x272 JUMP JUMPDEST DUP3 PUSH1 0x1F LT PUSH2 0x245 JUMPI DUP1 MLOAD PUSH1 0xFF NOT AND DUP4 DUP1 ADD OR DUP6 SSTORE PUSH2 0x272 JUMP JUMPDEST DUP3 DUP1 ADD PUSH1 0x1 ADD DUP6 SSTORE DUP3 ISZERO PUSH2 0x272 JUMPI SWAP2 DUP3 ADD JUMPDEST DUP3 DUP2 GT ISZERO PUSH2 0x272 JUMPI DUP3 MLOAD DUP3 SSTORE SWAP2 PUSH1 0x20 ADD SWAP2 SWAP1 PUSH1 0x1 ADD SWAP1 PUSH2 0x257 JUMP JUMPDEST POP PUSH2 0x27E SWAP3 SWAP2 POP PUSH2 0x282 JUMP JUMPDEST POP SWAP1 JUMP JUMPDEST JUMPDEST DUP1 DUP3 GT ISZERO PUSH2 0x27E JUMPI PUSH1 0x0 DUP2 SSTORE PUSH1 0x1 ADD PUSH2 0x283 JUMP JUMPDEST PUSH1 0x0 DUP3 PUSH1 0x1F DUP4 ADD SLT PUSH2 0x2A7 JUMPI DUP1 DUP2 REVERT JUMPDEST DUP2 CALLDATALOAD PUSH8 0xFFFFFFFFFFFFFFFF DUP1 DUP3 GT ISZERO PUSH2 0x2C2 JUMPI PUSH2 0x2C2 PUSH2 0x56C JUMP JUMPDEST PUSH1 0x40 MLOAD PUSH1 0x1F DUP4 ADD PUSH32 0xFFFFFFFFFFFFFFFFFFFFFFFFFFFFFFFFFFFFFFFFFFFFFFFFFFFFFFFFFFFFFFE0 SWAP1 DUP2 AND PUSH1 0x3F ADD AND DUP2 ADD SWAP1 DUP3 DUP3 GT DUP2 DUP4 LT OR ISZERO PUSH2 0x308 JUMPI PUSH2 0x308 PUSH2 0x56C JUMP JUMPDEST DUP2 PUSH1 0x40 MSTORE DUP4 DUP2 MSTORE DUP7 PUSH1 0x20 DUP6 DUP9 ADD ADD GT ISZERO PUSH2 0x320 JUMPI DUP5 DUP6 REVERT JUMPDEST DUP4 PUSH1 0x20 DUP8 ADD PUSH1 0x20 DUP4 ADD CALLDATACOPY SWAP3 DUP4 ADD PUSH1 0x20 ADD SWAP4 SWAP1 SWAP4 MSTORE POP SWAP4 SWAP3 POP POP POP JUMP JUMPDEST DUP1 CALLDATALOAD PUSH2 0xFFFF DUP2 AND DUP2 EQ PUSH2 0x34E JUMPI PUSH1 0x0 DUP1 REVERT JUMPDEST SWAP2 SWAP1 POP JUMP JUMPDEST PUSH1 0x0 DUP1 PUSH1 0x40 DUP4 DUP6 SUB SLT ISZERO PUSH2 0x365 JUMPI DUP2 DUP3 REVERT JUMPDEST PUSH2 0x36E DUP4 PUSH2 0x33C JUMP JUMPDEST SWAP2 POP PUSH1 0x20 DUP4 ADD CALLDATALOAD PUSH8 0xFFFFFFFFFFFFFFFF DUP2 GT ISZERO PUSH2 0x389 JUMPI DUP2 DUP3 REVERT JUMPDEST PUSH2 0x395 DUP6 DUP3 DUP7 ADD PUSH2 0x297 JUMP JUMPDEST SWAP2 POP POP SWAP3 POP SWAP3 SWAP1 POP JUMP JUMPDEST PUSH1 0x0 DUP1 PUSH1 0x0 DUP1 PUSH1 0x0 PUSH1 0xA0 DUP7 DUP9 SUB SLT ISZERO PUSH2 0x3B6 JUMPI DUP1 DUP2 REVERT JUMPDEST PUSH2 0x3BF DUP7 PUSH2 0x33C JUMP JUMPDEST SWAP5 POP PUSH1 0x20 DUP7 ADD CALLDATALOAD PUSH8 0xFFFFFFFFFFFFFFFF DUP1 DUP3 GT ISZERO PUSH2 0x3DB JUMPI DUP3 DUP4 REVERT JUMPDEST PUSH2 0x3E7 DUP10 DUP4 DUP11 ADD PUSH2 0x297 JUMP JUMPDEST SWAP6 POP PUSH1 0x40 DUP9 ADD CALLDATALOAD SWAP2 POP PUSH4 0xFFFFFFFF DUP3 AND DUP3 EQ PUSH2 0x401 JUMPI DUP3 DUP4 REVERT JUMPDEST SWAP1 SWAP4 POP PUSH1 0x60 DUP8 ADD CALLDATALOAD SWAP1 DUP1 DUP3 AND DUP3 EQ PUSH2 0x417 JUMPI DUP3 DUP4 REVERT JUMPDEST SWAP1 SWAP3 POP PUSH1 0x80 DUP8 ADD CALLDATALOAD SWAP1 DUP1 DUP3 GT ISZERO PUSH2 0x42C JUMPI DUP3 DUP4 REVERT JUMPDEST POP PUSH2 0x439 DUP9 DUP3 DUP10 ADD PUSH2 0x297 JUMP JUMPDEST SWAP2 POP POP SWAP3 SWAP6 POP SWAP3 SWAP6 SWAP1 SWAP4 POP JUMP JUMPDEST PUSH1 0x0 DUP1 DUP4 SLOAD DUP3 PUSH1 0x1 DUP3 DUP2 SHR SWAP2 POP DUP1 DUP4 AND DUP1 PUSH2 0x462 JUMPI PUSH1 0x7F DUP4 AND SWAP3 POP JUMPDEST PUSH1 0x20 DUP1 DUP5 LT DUP3 EQ ISZERO PUSH2 0x49B JUMPI PUSH32 0x4E487B7100000000000000000000000000000000000000000000000000000000 DUP8 MSTORE PUSH1 0x22 PUSH1 0x4 MSTORE PUSH1 0x24 DUP8 REVERT JUMPDEST DUP2 DUP1 ISZERO PUSH2 0x4AF JUMPI PUSH1 0x1 DUP2 EQ PUSH2 0x4DE JUMPI PUSH2 0x50A JUMP JUMPDEST PUSH32 0xFFFFFFFFFFFFFFFFFFFFFFFFFFFFFFFFFFFFFFFFFFFFFFFFFFFFFFFFFFFFFF00 DUP7 AND DUP10 MSTORE DUP5 DUP10 ADD SWAP7 POP PUSH2 0x50A JUMP JUMPDEST PUSH1 0x0 DUP11 DUP2 MSTORE PUSH1 0x20 SWAP1 KECCAK256 DUP9 JUMPDEST DUP7 DUP2 LT ISZERO PUSH2 0x502 JUMPI DUP2 SLOAD DUP12 DUP3 ADD MSTORE SWAP1 DUP6 ADD SWAP1 DUP4 ADD PUSH2 0x4E9 JUMP JUMPDEST POP POP DUP5 DUP10 ADD SWAP7 POP JUMPDEST POP SWAP5 SWAP9 SWAP8 POP POP POP POP POP POP POP POP JUMP JUMPDEST PUSH1 0x1 DUP2 DUP2 SHR SWAP1 DUP3 AND DUP1 PUSH2 0x52C JUMPI PUSH1 0x7F DUP3 AND SWAP2 POP JUMPDEST PUSH1 0x20 DUP3 LT DUP2 EQ ISZERO PUSH2 0x566 JUMPI PUSH32 0x4E487B7100000000000000000000000000000000000000000000000000000000 PUSH1 0x0 MSTORE PUSH1 0x22 PUSH1 0x4 MSTORE PUSH1 0x24 PUSH1 0x0 REVERT JUMPDEST POP SWAP2 SWAP1 POP JUMP JUMPDEST PUSH32 0x4E487B7100000000000000000000000000000000000000000000000000000000 PUSH1 0x0 MSTORE PUSH1 0x41 PUSH1 0x4 MSTORE PUSH1 0x24 PUSH1 0x0 REVERT INVALID LOG2 PUSH5 0x6970667358 0x22 SLT KECCAK256 0x5F 0x5E 0xB5 PUSH12 0xE2430CB1D81E8FE0FE29D628 0xEB SMOD 0x22 0xA5 0x4D PUSH20 0x2E49BACB195234631BB164736F6C634300080400 CALLER "
        },
        "gasEstimates": {
          "creation": {
            "codeDepositCost": "297800",
            "executionCost": "337",
            "totalCost": "298137"
          },
          "external": {
            "rrdata(uint16,bytes)": "infinite",
            "setData(uint16,bytes,uint32,uint64,bytes)": "infinite"
          }
        },
        "methodIdentifiers": {
          "rrdata(uint16,bytes)": "087991bc",
          "setData(uint16,bytes,uint32,uint64,bytes)": "8581a99c"
        }
      },
      "storageLayout": {
        "storage": [
          {
            "astId": 3,
            "contract": "contracts/dnsregistrar/mocks/DummyDnsRegistrarDNSSEC.sol:DummyDNSSEC",
            "label": "expectedType",
            "offset": 0,
            "slot": "0",
            "type": "t_uint16"
          },
          {
            "astId": 5,
            "contract": "contracts/dnsregistrar/mocks/DummyDnsRegistrarDNSSEC.sol:DummyDNSSEC",
            "label": "expectedName",
            "offset": 0,
            "slot": "1",
            "type": "t_bytes_storage"
          },
          {
            "astId": 7,
            "contract": "contracts/dnsregistrar/mocks/DummyDnsRegistrarDNSSEC.sol:DummyDNSSEC",
            "label": "inception",
            "offset": 0,
            "slot": "2",
            "type": "t_uint32"
          },
          {
            "astId": 9,
            "contract": "contracts/dnsregistrar/mocks/DummyDnsRegistrarDNSSEC.sol:DummyDNSSEC",
            "label": "inserted",
            "offset": 4,
            "slot": "2",
            "type": "t_uint64"
          },
          {
            "astId": 11,
            "contract": "contracts/dnsregistrar/mocks/DummyDnsRegistrarDNSSEC.sol:DummyDNSSEC",
            "label": "hash",
            "offset": 12,
            "slot": "2",
            "type": "t_bytes20"
          }
        ],
        "types": {
          "t_bytes20": {
            "encoding": "inplace",
            "label": "bytes20",
            "numberOfBytes": "20"
          },
          "t_bytes_storage": {
            "encoding": "bytes",
            "label": "bytes",
            "numberOfBytes": "32"
          },
          "t_uint16": {
            "encoding": "inplace",
            "label": "uint16",
            "numberOfBytes": "2"
          },
          "t_uint32": {
            "encoding": "inplace",
            "label": "uint32",
            "numberOfBytes": "4"
          },
          "t_uint64": {
            "encoding": "inplace",
            "label": "uint64",
            "numberOfBytes": "8"
          }
        }
      },
      "userdoc": {
        "kind": "user",
        "methods": {},
        "version": 1
      }
    }
  }
}