{
  "_format": "hh-sol-artifact-1",
  "contractName": "TestRRUtils",
  "sourceName": "test/dnssec-oracle/TestRRUtils.sol",
  "abi": [
    {
      "inputs": [],
      "name": "testCheckTypeBitmap",
      "outputs": [],
      "stateMutability": "pure",
      "type": "function"
    },
    {
      "inputs": [],
      "name": "testCheckTypeBitmapTextType",
      "outputs": [],
      "stateMutability": "pure",
      "type": "function"
    },
    {
      "inputs": [],
      "name": "testCompareNames",
      "outputs": [],
      "stateMutability": "pure",
      "type": "function"
    },
    {
      "inputs": [],
      "name": "testIterateRRs",
      "outputs": [],
      "stateMutability": "pure",
      "type": "function"
    },
    {
      "inputs": [],
      "name": "testKeyTag",
      "outputs": [],
      "stateMutability": "view",
      "type": "function"
    },
    {
      "inputs": [],
      "name": "testLabelCount",
      "outputs": [],
      "stateMutability": "pure",
      "type": "function"
    },
    {
      "inputs": [],
      "name": "testNameLength",
      "outputs": [],
      "stateMutability": "pure",
      "type": "function"
    },
    {
      "inputs": [],
      "name": "testSerialNumberGt",
      "outputs": [],
      "stateMutability": "pure",
      "type": "function"
    }
  ],
  "bytecode": "0x608060405234801561001057600080fd5b50612a4d806100206000396000f3fe608060405234801561001057600080fd5b50600436106100885760003560e01c80639ba247481161005b5780639ba24748146100af5780639e4a090d146100b7578063bb73daed146100bf578063cc60617b146100c757600080fd5b80630250cf9a1461008d5780632275868c14610097578063706fc4de1461009f578063976e62ac146100a7575b600080fd5b6100956100cf565b005b61009561026b565b610095610594565b61009561097d565b610095611295565b61009561134b565b610095611568565b6100956116ff565b6100f96000604051806040016040528060018152602001600081525061192090919063ffffffff16565b60011461014d5760405162461bcd60e51b815260206004820152601460248201527f6e616d654c656e67746828272e2729203d3d203100000000000000000000000060448201526064015b60405180910390fd5b60408051808201909152600581527f0361626300000000000000000000000000000000000000000000000000000000602082015261018c906004611920565b6001146101db5760405162461bcd60e51b815260206004820152601460248201527f6e616d654c656e67746828272e2729203d3d20310000000000000000000000006044820152606401610144565b60408051808201909152600581527f0361626300000000000000000000000000000000000000000000000000000000602082015261021a906000611920565b6005146102695760405162461bcd60e51b815260206004820152601760248201527f6e616d654c656e67746828276162632e2729203d3d20350000000000000000006044820152606401610144565b565b6000604051806060016040528060268152602001612969602691399050610294816001806119a8565b151560011461030a5760405162461bcd60e51b8152602060048201526024808201527f41207265636f72642073686f756c6420657869737420696e207479706520626960448201527f746d6170000000000000000000000000000000000000000000000000000000006064820152608401610144565b61031781600160056119a8565b1561038a5760405162461bcd60e51b815260206004820152602c60248201527f434e414d45207265636f72642073686f756c64206e6f7420657869737420696e60448201527f2074797065206269746d617000000000000000000000000000000000000000006064820152608401610144565b61039781600160406119a8565b1561040a5760405162461bcd60e51b815260206004820152602760248201527f547970652036342073686f756c64206e6f7420657869737420696e207479706560448201527f206269746d6170000000000000000000000000000000000000000000000000006064820152608401610144565b6104188160016103016119a8565b1561048b5760405162461bcd60e51b815260206004820152602860248201527f54797065203736392073686f756c64206e6f7420657869737420696e2074797060448201527f65206269746d61700000000000000000000000000000000000000000000000006064820152608401610144565b6104998160016104d26119a8565b15156001146105105760405162461bcd60e51b815260206004820152602560248201527f5479706520313233342073686f756c6420657869737420696e2074797065206260448201527f69746d61700000000000000000000000000000000000000000000000000000006064820152608401610144565b61051e8160016105016119a8565b156105915760405162461bcd60e51b815260206004820152602960248201527f5479706520313238312073686f756c64206e6f7420657869737420696e20747960448201527f7065206269746d617000000000000000000000000000000000000000000000006064820152608401610144565b50565b60006040518060600160405280602481526020016128bd60249139604080516080808201835260038284019081527f016100000000000000000000000000000000000000000000000000000000000060608085019190915290835283518085018552600581527f0162016100000000000000000000000000000000000000000000000000000000602082810191909152808501919091528451928301855260048386018181527f74000001000000000000000000000000000000000000000000000000000000009385019390935291835284518086019095529084527fc0a8010100000000000000000000000000000000000000000000000000000000848201528101929092529192506000806106ab8582611ac0565b90505b8051516020820151101561092657806040015161ffff166001146107145760405162461bcd60e51b815260206004820152600c60248201527f54797065206d61746368657300000000000000000000000000000000000000006044820152606401610144565b806060015161ffff1660011461076c5760405162461bcd60e51b815260206004820152600d60248201527f436c617373206d617463686573000000000000000000000000000000000000006044820152606401610144565b806080015163ffffffff16610e10146107c75760405162461bcd60e51b815260206004820152600b60248201527f54544c206d6174636865730000000000000000000000000000000000000000006044820152606401610144565b838260028110610800577f4e487b7100000000000000000000000000000000000000000000000000000000600052603260045260246000fd5b60200201518051906020012061081582611b21565b80519060200120146108695760405162461bcd60e51b815260206004820152600c60248201527f4e616d65206d61746368657300000000000000000000000000000000000000006044820152606401610144565b8282600281106108a2577f4e487b7100000000000000000000000000000000000000000000000000000000600052603260045260246000fd5b6020020151805190602001206108b782611b42565b805190602001201461090b5760405162461bcd60e51b815260206004820152600d60248201527f5264617461206d617463686573000000000000000000000000000000000000006044820152606401610144565b8161091581612662565b92505061092181611b5e565b6106ae565b50806002146109775760405162461bcd60e51b815260206004820152601260248201527f45787065637465642032207265636f72647300000000000000000000000000006044820152606401610144565b50505050565b60006040518060400160405280600c81526020017f066274686c61620378797a000000000000000000000000000000000000000000815250905060006040518060400160405280600c81526020017f066574686c61620378797a000000000000000000000000000000000000000000815250905060006040518060400160405280600581526020017f0378797a00000000000000000000000000000000000000000000000000000000815250905060006040518060400160405280600781526020017f0161016201630000000000000000000000000000000000000000000000000000815250905060006040518060400160405280600781526020017f0162016201630000000000000000000000000000000000000000000000000000815250905060006040518060400160405280600381526020017f0163000000000000000000000000000000000000000000000000000000000000815250905060006040518060400160405280600381526020017f0164000000000000000000000000000000000000000000000000000000000000815250905060006040518060400160405280600781526020017f0161016401630000000000000000000000000000000000000000000000000000815250905060006040518060400160405280600781526020017f0162016101630000000000000000000000000000000000000000000000000000815250905060006040518060400160405280600881526020017f0261620163016400000000000000000000000000000000000000000000000000815250905060006040518060400160405280600781526020017f016101630164000000000000000000000000000000000000000000000000000081525090506000610c7a6040518060400160405280600581526020017f03026162000000000000000000000000000000000000000000000000000000008152506040518060400160405280600581526020017f0301616100000000000000000000000000000000000000000000000000000000815250611c4690919063ffffffff16565b12610ced5760405162461bcd60e51b815260206004820152602360248201527f6c6162656c206c656e677468732061726520636f72726563746c79206368656360448201527f6b656400000000000000000000000000000000000000000000000000000000006064820152608401610144565b6000610cf98988611c46565b13610d6e576040805162461bcd60e51b81526020600482015260248101919091527f6f6e65206e616d6520686173206120646966666572656e6365206f66203e312060448201527f6c6162656c20746f2077697468207468652073616d6520726f6f74206e616d656064820152608401610144565b6000610d7a8987611c46565b12610e135760405162461bcd60e51b815260206004820152604160248201527f6f6e65206e616d6520686173206120646966666572656e6365206f66203e312060448201527f6c6162656c20746f207769746820646966666572656e7420726f6f74206e616d60648201527f6500000000000000000000000000000000000000000000000000000000000000608482015260a401610144565b6000610e1f8986611c46565b12610e925760405162461bcd60e51b815260206004820152603d60248201527f74776f206e616d6573207374617274207468652073616d65206275742068617660448201527f6520646966666572656e63657320696e206c61746572206c6162656c730000006064820152608401610144565b6000610e9e8985611c46565b13610f115760405162461bcd60e51b815260206004820152603e60248201527f746865206669727374206c6162656c20736f727473206c617465722c2062757460448201527f20746865206669727374206c6162656c20736f727473206561726c69657200006064820152608401610144565b6000610f1d8383611c46565b13610fb65760405162461bcd60e51b815260206004820152605260248201527f74776f206e616d657320776865726520746865206669727374206c6162656c2060448201527f6f6e206f6e65206973206120707265666978206f66207468652066697273742060648201527f6c6162656c206f6e20746865206f746865720000000000000000000000000000608482015260a401610144565b6000610fc28989611c46565b1261105b5760405162461bcd60e51b815260206004820152605260248201527f74776f206e616d657320776865726520746865206669727374206c6162656c2060448201527f6f6e206f6e65206973206120707265666978206f66207468652066697273742060648201527f6c6162656c206f6e20746865206f746865720000000000000000000000000000608482015260a401610144565b60006110678a8c611c46565b126110b45760405162461bcd60e51b815260206004820152601b60248201527f78797a20636f6d6573206265666f7265206574684c61622e78797a00000000006044820152606401610144565b60006110c08c8c611c46565b126111335760405162461bcd60e51b815260206004820152602260248201527f6274684c61622e78797a20636f6d6573206265666f7265206574684c61622e7860448201527f797a0000000000000000000000000000000000000000000000000000000000006064820152608401610144565b61113d8b80611c46565b156111b05760405162461bcd60e51b815260206004820152602660248201527f6274684c61622e78797a20616e64206274684c61622e78797a2061726520746860448201527f652073616d6500000000000000000000000000000000000000000000000000006064820152608401610144565b60006111bc8b8d611c46565b1361122f5760405162461bcd60e51b815260206004820152602260248201527f6574684c61622e78797a20636f6d657320616674657220626574684c61622e7860448201527f797a0000000000000000000000000000000000000000000000000000000000006064820152608401610144565b600061123b8c8b611c46565b136112885760405162461bcd60e51b815260206004820152601a60248201527f6274684c61622e78797a20636f6d65732061667465722078797a0000000000006044820152606401610144565b5050505050505050505050565b60408051808201909152600581527e0300008000000000000000000000000000000000000000000000000000000060208201526112d581600060106119a8565b15156001146105915760405162461bcd60e51b8152602060048201526024808201527f41207265636f72642073686f756c6420657869737420696e207479706520626960448201527f746d6170000000000000000000000000000000000000000000000000000000006064820152608401610144565b61135760016000611d99565b6113a35760405162461bcd60e51b815260206004820152600660248201527f31203e3d203000000000000000000000000000000000000000000000000000006044820152606401610144565b6113af60006001611d99565b156113fc5760405162461bcd60e51b815260206004820152600960248201527f212830203c3d20312900000000000000000000000000000000000000000000006044820152606401610144565b61140b600063ffffffff611d99565b6114575760405162461bcd60e51b815260206004820152600f60248201527f30203e3d203078464646464646464600000000000000000000000000000000006044820152606401610144565b61146663ffffffff6000611d99565b156114b35760405162461bcd60e51b815260206004820152601260248201527f212830203c3d20307846464646464646462900000000000000000000000000006044820152606401610144565b6114c5631111111163aaaaaaaa611d99565b6115115760405162461bcd60e51b815260206004820152601860248201527f30783131313131313131203e3d203078414141414141414100000000000000006044820152606401610144565b61151c600180611d99565b6102695760405162461bcd60e51b815260206004820152600660248201527f31203e3d203100000000000000000000000000000000000000000000000000006044820152606401610144565b61158c60405180610140016040528061010881526020016126ad6101089139611db2565b61ffff16614a5c146115e05760405162461bcd60e51b815260206004820152600e60248201527f496e76616c6964206b65797461670000000000000000000000000000000000006044820152606401610144565b6116016040518060c001604052806089815260200161298f60899139611db2565b61ffff166154bd146116555760405162461bcd60e51b815260206004820152601260248201527f496e76616c6964206b65797461672028322900000000000000000000000000006044820152606401610144565b6116766040518060c00160405280608881526020016128e160889139611db2565b61ffff1661835e1461168757600080fd5b6116ab60405180610140016040528061010881526020016127b56101089139611db2565b61ffff16614f66146102695760405162461bcd60e51b815260206004820152601260248201527f496e76616c6964206b65797461672028332900000000000000000000000000006044820152606401610144565b61172960006040518060400160405280600181526020016000815250611fdc90919063ffffffff16565b156117765760405162461bcd60e51b815260206004820152601460248201527f6c6162656c436f756e7428272e2729203d3d20300000000000000000000000006044820152606401610144565b60408051808201909152600381527f016100000000000000000000000000000000000000000000000000000000000060208201526117b5906000611fdc565b6001146118045760405162461bcd60e51b815260206004820152601560248201527f6c6162656c436f756e742827612e2729203d3d203100000000000000000000006044820152606401610144565b60408051808201909152600681527f01620161000000000000000000000000000000000000000000000000000000006020820152611843906000611fdc565b6002146118925760405162461bcd60e51b815260206004820152601760248201527f6c6162656c436f756e742827622e612e2729203d3d20320000000000000000006044820152606401610144565b60408051808201909152600c81527f066574686c61620378797a00000000000000000000000000000000000000000060208201526118d1906007611fdc565b6001146102695760405162461bcd60e51b815260206004820181905260248201527f6e616d654c656e6774682827286274686c6162292e78797a2e2729203d3d20366044820152606401610144565b6000815b8351811061195b577f4e487b7100000000000000000000000000000000000000000000000000000000600052600160045260246000fd5b6000611967858361205d565b60ff1690506119778160016123ac565b61198190836123ac565b91508061198e5750611994565b50611924565b61199e8382612611565b9150505b92915050565b600060ff600883811c82169183916119c19186166123e9565b905060006119d3600780871690612628565b600160ff919091161b9050855b8751811015611ab05760006119f5898361205d565b90506000611a0e611a078460016123ac565b8b9061205d565b90508160ff168660ff161015611a2d5760009650505050505050611ab9565b8160ff168660ff161415611a8f578460ff168160ff1611611a575760009650505050505050611ab9565b83611a7a611a6860ff8816866123ac565b611a739060026123ac565b8c9061205d565b1660ff16600014159650505050505050611ab9565b611a9a8160026123c4565b611aa79060ff16846123ac565b925050506119e0565b50600093505050505b9392505050565b611b0e6040518060e001604052806060815260200160008152602001600061ffff168152602001600061ffff168152602001600063ffffffff16815260200160008152602001600081525090565b82815260c081018290526119a281611b5e565b602081015181516060916119a291611b399082611920565b845191906120a8565b60a081015160c08201516060916119a291611b39908290612611565b60c08101516020820181905281515111611b755750565b6000611b8982600001518360200151611920565b8260200151611b9891906123ac565b8251909150611ba79082612151565b61ffff166040830152611bbb6002826123ac565b8251909150611bca9082612151565b61ffff166060830152611bde6002826123ac565b8251909150611bed9082612179565b63ffffffff166080830152611c036004826123ac565b8251909150600090611c159083612151565b61ffff169050611c266002836123ac565b60a084018190529150611c3981836123ac565b60c0909301929092525050565b6000611c5283836121a3565b15611c5f575060006119a2565b6000806000806000611c72886000611fdc565b90506000611c81886000611fdc565b90505b80821115611cad57859350611c9989876121c1565b955081611ca58161264b565b925050611c84565b81811115611cd657849250611cc288866121c1565b945080611cce8161264b565b915050611cad565b600082118015611cef5750611ced89878a886121e5565b155b15611d2457859350611d0189876121c1565b9550849250611d1088866121c1565b9450611d1d600183612611565b9150611cd6565b85611d395760001996505050505050506119a2565b84611d4d57600196505050505050506119a2565b611d8c611d5b8560016123ac565b611d658b8761205d565b60ff168a611d748760016123ac565b611d7e8d8961205d565b8e949392919060ff1661221a565b9998505050505050505050565b600080611da683856125ad565b60030b12159392505050565b600061200082511115611e075760405162461bcd60e51b815260206004820152601760248201527f4c6f6e67206b657973206e6f74207065726d69747465640000000000000000006044820152606401610144565b60008060005b8451601f01811015611e7c5760008160208701015190508551826020011115611e425785518290036008026101000390811c901b5b7eff00ff00ff00ff00ff00ff00ff00ff00ff00ff00ff00ff00ff00ff00ff00ff600882901c81169490940193169190910190602001611e0d565b506010827fffff0000ffff0000ffff0000ffff0000ffff0000ffff0000ffff0000ffff000016901c827dffff0000ffff0000ffff0000ffff0000ffff0000ffff0000ffff0000ffff160191506010817fffff0000ffff0000ffff0000ffff0000ffff0000ffff0000ffff0000ffff000016901c817dffff0000ffff0000ffff0000ffff0000ffff0000ffff0000ffff0000ffff1601905080600883901b0191506020827fffffffff00000000ffffffff00000000ffffffff00000000ffffffff0000000016901c827bffffffff00000000ffffffff00000000ffffffff00000000ffffffff160191506040827fffffffffffffffff0000000000000000ffffffffffffffff000000000000000016901c8277ffffffffffffffff0000000000000000ffffffffffffffff16019150608082901c826fffffffffffffffffffffffffffffffff16019150601082901c61ffff16820191508192505050919050565b6000805b83518310612017577f4e487b7100000000000000000000000000000000000000000000000000000000600052600160045260246000fd5b6000612023858561205d565b60ff1690506120338160016123ac565b61203d90856123ac565b93508061204a5750611ab9565b6120556001836123ac565b915050611fe0565b6000828281518110612098577f4e487b7100000000000000000000000000000000000000000000000000000000600052603260045260246000fd5b016020015160f81c905092915050565b82516060906120b783856123ac565b11156120c257600080fd5b60008267ffffffffffffffff811115612104577f4e487b7100000000000000000000000000000000000000000000000000000000600052604160045260246000fd5b6040519080825280601f01601f19166020018201604052801561212e576020820181803683370190505b5090506020808201908686010161214682828761230f565b509095945050505050565b81516000906121618360026123ac565b111561216c57600080fd5b50016002015161ffff1690565b81516000906121898360046123ac565b111561219457600080fd5b50016004015163ffffffff1690565b600081518351148015611ab95750611ab98360008460008751612365565b60006121cd838361205d565b60ff166121db8360016123ac565b611ab991906123ac565b60006121fe83838486516121f99190612611565b612388565b61221086868789516121f99190612611565b1495945050505050565b600084808310156122285750815b60208789018101908587010160005b838110156122f457825182518082146122c4576000602087111561225e575060001961229a565b60018461226c896020612611565b61227691906123ac565b61228190600861251a565b61228c906002612472565b6122969190612611565b1990505b60006122aa838316858416612539565b905080156122c15797506123059650505050505050565b50505b6122cf6020866123ac565b94506122dc6020856123ac565b935050506020816122ed91906123ac565b9050612237565b506122ff8589612539565b93505050505b9695505050505050565b6020811061234757815183526123266020846123ac565b92506123336020836123ac565b9150612340602082612611565b905061230f565b905182516020929092036101000a6000190180199091169116179052565b6000612372848484612388565b61237d878785612388565b149695505050505050565b825160009061239783856123ac565b11156123a257600080fd5b5091016020012090565b600082198211156123bf576123bf61267d565b500190565b600060ff821660ff84168060ff038211156123e1576123e161267d565b019392505050565b600061ffff80841680612423577f4e487b710000000000000000000000000000000000000000000000000000000083526012600452602483fd5b92169190910492915050565b600181815b8085111561246a5781600019048211156124505761245061267d565b8085161561245d57918102915b93841c9390800290612434565b509250929050565b6000611ab98383600082612488575060016119a2565b81612495575060006119a2565b81600181146124ab57600281146124b5576124d1565b60019150506119a2565b60ff8411156124c6576124c661267d565b50506001821b6119a2565b5060208310610133831016604e8410600b84101617156124f4575081810a6119a2565b6124fe838361242f565b80600019048211156125125761251261267d565b029392505050565b60008160001904831182151516156125345761253461267d565b500290565b6000808312837f8000000000000000000000000000000000000000000000000000000000000000018312811516156125735761257361267d565b837f7fffffffffffffffffffffffffffffffffffffffffffffffffffffffffffffff0183138116156125a7576125a761267d565b50500390565b60008160030b8360030b828112817fffffffffffffffffffffffffffffffffffffffffffffffffffffffff80000000018312811516156125ef576125ef61267d565b81637fffffff0183138116156126075761260761267d565b5090039392505050565b6000828210156126235761262361267d565b500390565b600060ff821660ff8416808210156126425761264261267d565b90039392505050565b60008161265a5761265a61267d565b506000190190565b60006000198214156126765761267661267d565b5060010190565b7f4e487b7100000000000000000000000000000000000000000000000000000000600052601160045260246000fdfe0101030803010001a80020a95566ba42e886bb804cda84e47ef56dbd7aec612615552cec906d2116d0ef207028c51554144dfeafe7c7cb8f005dd18234133ac0710a81182ce1fd14ad2283bc83435f9df2f6313251931a176df0da51e54f42e604860dfb359580250f559cc543c4ffd51cbe3de8cfd06719237f9fc47ee729da06835fa452e825e9a18ebc2ecbcf563474652c33cf56a9033bcdf5d973121797ec8089041b6e03a1b72d0a735b984e03687309332324f27c2dba85e9db15e83a0143382e974b0621c18e625ecec907577d9e7bade95241a81ebbe8a901d4d3276e40b114c0a2e6fc38d19c2e6aab02644b2813f575fc21601e0dee49cd9ee96a43103e524d62873d0101030803010001acffb409bcc939f831f7a1e5ec88f7a59255ec53040be432027390a4ce896d6f9086f3c5e177fbfe118163aaec7af1462c47945944c4e2c026be5e98bbcded25978272e1e3e079c5094d573f0e83c92f02b32d3513b1550b826929c80dd0f92cac966d17769fd5867b647c3f38029abdc48152eb8f207159ecc5d232c7c1537c79f4b7ac28ff11682f21681bf6d6aba555032bf6f9f036beb2aaa5b3778d6eebfba6bf9ea191be4ab0caea759e2f773a1f9029c73ecb8d5735b9321db085f1b8e2d8038fe2941992548cee0d67dd4547e11dd63af9c9fc1c5466fb684cf009d7197c2cf79e792ab501e6a8a1ca519af2cb9b5f6367e94c0d47502451357be1b50161000001000100000e1000047400000101620161000001000100000e100004c0a801010100030503010001bfa54c38d909fabb0f937d70d775ba0df4c0badb09707d995249406950407a621c794c68b186b15dbf8f9f9ea231e9f96414ccda4eceb50b17a9ac6c4bd4b95da04849e96ee791578b703bc9ae184fb1794bac792a0787f693a40f19f523ee6dbd3599dbaaa9a50437926ecf6438845d1d49448962524f2a1a7a36b3a0a1eca3ff0006400100000003041b000000000000000000000000000000000000000000000000000020010003050440000003ba2fa05a75e173bede89eb71831ab14035f2408ad09df4d8dc8f8f72e8f13506feaddf7b04cb14958b82966e3420562302c4002bc4fd088432e160519bb14dae82443850c1423e06085710b5caf070d46b7ba7e481414f6a5fe225fdca984c959091645d0cf1c9a1a313d7e7fb7ba60b967b71a65f8cef2c3768e11b081c8fcfa264697066735822122077e173dcb8e8853615ed6f00321748b46efc415370ff539d9fd1f6542383001d64736f6c63430008040033",
  "linkReferences": {},
  "deployedLinkReferences": {}
}