{
  "_format": "hh-sol-artifact-1",
  "contractName": "DummyResolver",
  "sourceName": "test/registry/mocks/DummyResolver.sol",
  "abi": [
    {
      "inputs": [
        {
          "internalType": "bytes32",
          "name": "",
          "type": "bytes32"
        }
      ],
      "name": "name",
      "outputs": [
        {
          "internalType": "string",
          "name": "",
          "type": "string"
        }
      ],
      "stateMutability": "view",
      "type": "function"
    },
    {
      "inputs": [
        {
          "internalType": "bytes32",
          "name": "node",
          "type": "bytes32"
        },
        {
          "internalType": "string",
          "name": "_name",
          "type": "string"
        }
      ],
      "name": "setName",
      "outputs": [],
      "stateMutability": "nonpayable",
      "type": "function"
    }
  ],
  "bytecode": "0x608060405234801561001057600080fd5b506103e4806100206000396000f3fe608060405234801561001057600080fd5b50600436106100365760003560e01c8063691f34311461003b5780637737221314610064575b600080fd5b61004e6100493660046101ce565b610079565b60405161005b91906102ba565b60405180910390f35b6100776100723660046101e6565b610113565b005b600060208190529081526040902080546100929061032b565b80601f01602080910402602001604051908101604052809291908181526020018280546100be9061032b565b801561010b5780601f106100e05761010080835404028352916020019161010b565b820191906000526020600020905b8154815290600101906020018083116100ee57829003601f168201915b505050505081565b600082815260208181526040909120825161013092840190610135565b505050565b8280546101419061032b565b90600052602060002090601f01602090048101928261016357600085556101a9565b82601f1061017c57805160ff19168380011785556101a9565b828001600101855582156101a9579182015b828111156101a957825182559160200191906001019061018e565b506101b59291506101b9565b5090565b5b808211156101b557600081556001016101ba565b6000602082840312156101df578081fd5b5035919050565b600080604083850312156101f8578081fd5b82359150602083013567ffffffffffffffff80821115610216578283fd5b818501915085601f830112610229578283fd5b81358181111561023b5761023b61037f565b604051601f82017fffffffffffffffffffffffffffffffffffffffffffffffffffffffffffffffe0908116603f011681019083821181831017156102815761028161037f565b81604052828152886020848701011115610299578586fd5b82602086016020830137856020848301015280955050505050509250929050565b6000602080835283518082850152825b818110156102e6578581018301518582016040015282016102ca565b818111156102f75783604083870101525b50601f017fffffffffffffffffffffffffffffffffffffffffffffffffffffffffffffffe016929092016040019392505050565b600181811c9082168061033f57607f821691505b60208210811415610379577f4e487b7100000000000000000000000000000000000000000000000000000000600052602260045260246000fd5b50919050565b7f4e487b7100000000000000000000000000000000000000000000000000000000600052604160045260246000fdfea2646970667358221220b53288238fd46042f98c9213713ca681422199418998c5d5051e15b986399be064736f6c63430008040033",
  "linkReferences": {},
  "deployedLinkReferences": {}
}